{
  "_format": "hh-sol-artifact-1",
  "contractName": "Migrations",
  "sourceName": "contracts/Migrations.sol",
  "abi": [
    {
      "inputs": [],
      "stateMutability": "nonpayable",
      "type": "constructor"
    },
    {
      "inputs": [],
      "name": "last_completed_migration",
      "outputs": [
        {
          "internalType": "uint256",
          "name": "",
          "type": "uint256"
        }
      ],
      "stateMutability": "view",
      "type": "function"
    },
    {
      "inputs": [],
      "name": "owner",
      "outputs": [
        {
          "internalType": "address",
          "name": "",
          "type": "address"
        }
      ],
      "stateMutability": "view",
      "type": "function"
    },
    {
      "inputs": [
        {
          "internalType": "uint256",
          "name": "completed",
          "type": "uint256"
        }
      ],
      "name": "setCompleted",
      "outputs": [],
      "stateMutability": "nonpayable",
      "type": "function"
    },
    {
      "inputs": [
        {
          "internalType": "address",
          "name": "newOwner",
          "type": "address"
        }
      ],
      "name": "updateOwner",
      "outputs": [],
      "stateMutability": "nonpayable",
      "type": "function"
    }
  ],
  "bytecode": "0x6080604052348015600f57600080fd5b50600080546001600160a01b03191633179055610275806100316000396000f3fe608060405234801561001057600080fd5b506004361061004c5760003560e01c8063445df0ac14610051578063880cdc311461006d5780638da5cb5b14610082578063fdacd576146100ad575b600080fd5b61005a60015481565b6040519081526020015b60405180910390f35b61008061007b3660046101f6565b6100c0565b005b600054610095906001600160a01b031681565b6040516001600160a01b039091168152602001610064565b6100806100bb366004610226565b610197565b6000546001600160a01b0316331461011f5760405162461bcd60e51b815260206004820152601c60248201527f5265737472696374656420746f20636f6e7472616374206f776e65720000000060448201526064015b60405180910390fd5b6001600160a01b0381166101755760405162461bcd60e51b815260206004820181905260248201527f4e6577206f776e65722063616e6e6f74206265207a65726f20616464726573736044820152606401610116565b600080546001600160a01b0319166001600160a01b0392909216919091179055565b6000546001600160a01b031633146101f15760405162461bcd60e51b815260206004820152601c60248201527f5265737472696374656420746f20636f6e7472616374206f776e6572000000006044820152606401610116565b600155565b60006020828403121561020857600080fd5b81356001600160a01b038116811461021f57600080fd5b9392505050565b60006020828403121561023857600080fd5b503591905056fea26469706673582212208fe7d1d1c5a45fa884c74b4062749fc69798aaaf71ca9bdaddb4739b4033b5f564736f6c634300081d0033",
  "linkReferences": {},
  "deployedLinkReferences": {}
}