{
  "_format": "hh-sol-artifact-1",
  "contractName": "SpaceBabiezNFT",
  "sourceName": "contracts/SpaceBabiezNFT.sol",
  "abi": [
    {
      "inputs": [],
      "stateMutability": "nonpayable",
      "type": "constructor"
    },
    {
      "inputs": [
        {
          "internalType": "address",
          "name": "sender",
          "type": "address"
        },
        {
          "internalType": "uint256",
          "name": "tokenId",
          "type": "uint256"
        },
        {
          "internalType": "address",
          "name": "owner",
          "type": "address"
        }
      ],
      "name": "ERC721IncorrectOwner",
      "type": "error"
    },
    {
      "inputs": [
        {
          "internalType": "address",
          "name": "operator",
          "type": "address"
        },
        {
          "internalType": "uint256",
          "name": "tokenId",
          "type": "uint256"
        }
      ],
      "name": "ERC721InsufficientApproval",
      "type": "error"
    },
    {
      "inputs": [
        {
          "internalType": "address",
          "name": "approver",
          "type": "address"
        }
      ],
      "name": "ERC721InvalidApprover",
      "type": "error"
    },
    {
      "inputs": [
        {
          "internalType": "address",
          "name": "operator",
          "type": "address"
        }
      ],
      "name": "ERC721InvalidOperator",
      "type": "error"
    },
    {
      "inputs": [
        {
          "internalType": "address",
          "name": "owner",
          "type": "address"
        }
      ],
      "name": "ERC721InvalidOwner",
      "type": "error"
    },
    {
      "inputs": [
        {
          "internalType": "address",
          "name": "receiver",
          "type": "address"
        }
      ],
      "name": "ERC721InvalidReceiver",
      "type": "error"
    },
    {
      "inputs": [
        {
          "internalType": "address",
          "name": "sender",
          "type": "address"
        }
      ],
      "name": "ERC721InvalidSender",
      "type": "error"
    },
    {
      "inputs": [
        {
          "internalType": "uint256",
          "name": "tokenId",
          "type": "uint256"
        }
      ],
      "name": "ERC721NonexistentToken",
      "type": "error"
    },
    {
      "inputs": [
        {
          "internalType": "address",
          "name": "owner",
          "type": "address"
        }
      ],
      "name": "OwnableInvalidOwner",
      "type": "error"
    },
    {
      "inputs": [
        {
          "internalType": "address",
          "name": "account",
          "type": "address"
        }
      ],
      "name": "OwnableUnauthorizedAccount",
      "type": "error"
    },
    {
      "inputs": [],
      "name": "ReentrancyGuardReentrantCall",
      "type": "error"
    },
    {
      "anonymous": false,
      "inputs": [
        {
          "indexed": true,
          "internalType": "address",
          "name": "owner",
          "type": "address"
        },
        {
          "indexed": true,
          "internalType": "address",
          "name": "approved",
          "type": "address"
        },
        {
          "indexed": true,
          "internalType": "uint256",
          "name": "tokenId",
          "type": "uint256"
        }
      ],
      "name": "Approval",
      "type": "event"
    },
    {
      "anonymous": false,
      "inputs": [
        {
          "indexed": true,
          "internalType": "address",
          "name": "owner",
          "type": "address"
        },
        {
          "indexed": true,
          "internalType": "address",
          "name": "operator",
          "type": "address"
        },
        {
          "indexed": false,
          "internalType": "bool",
          "name": "approved",
          "type": "bool"
        }
      ],
      "name": "ApprovalForAll",
      "type": "event"
    },
    {
      "anonymous": false,
      "inputs": [
        {
          "indexed": true,
          "internalType": "uint256",
          "name": "parent1Id",
          "type": "uint256"
        },
        {
          "indexed": true,
          "internalType": "uint256",
          "name": "parent2Id",
          "type": "uint256"
        },
        {
          "indexed": true,
          "internalType": "uint256",
          "name": "childId",
          "type": "uint256"
        }
      ],
      "name": "BabyBred",
      "type": "event"
    },
    {
      "anonymous": false,
      "inputs": [
        {
          "indexed": true,
          "internalType": "address",
          "name": "to",
          "type": "address"
        },
        {
          "indexed": true,
          "internalType": "uint256",
          "name": "tokenId",
          "type": "uint256"
        },
        {
          "indexed": false,
          "internalType": "uint256",
          "name": "generation",
          "type": "uint256"
        }
      ],
      "name": "BabyMinted",
      "type": "event"
    },
    {
      "anonymous": false,
      "inputs": [
        {
          "indexed": true,
          "internalType": "uint256",
          "name": "tokenId",
          "type": "uint256"
        },
        {
          "indexed": false,
          "internalType": "uint256",
          "name": "amount",
          "type": "uint256"
        }
      ],
      "name": "ExperienceGained",
      "type": "event"
    },
    {
      "anonymous": false,
      "inputs": [
        {
          "indexed": true,
          "internalType": "uint256",
          "name": "tokenId",
          "type": "uint256"
        },
        {
          "indexed": false,
          "internalType": "uint256",
          "name": "newLevel",
          "type": "uint256"
        }
      ],
      "name": "LevelUp",
      "type": "event"
    },
    {
      "anonymous": false,
      "inputs": [
        {
          "indexed": true,
          "internalType": "address",
          "name": "previousOwner",
          "type": "address"
        },
        {
          "indexed": true,
          "internalType": "address",
          "name": "newOwner",
          "type": "address"
        }
      ],
      "name": "OwnershipTransferred",
      "type": "event"
    },
    {
      "anonymous": false,
      "inputs": [
        {
          "indexed": true,
          "internalType": "address",
          "name": "from",
          "type": "address"
        },
        {
          "indexed": true,
          "internalType": "address",
          "name": "to",
          "type": "address"
        },
        {
          "indexed": true,
          "internalType": "uint256",
          "name": "tokenId",
          "type": "uint256"
        }
      ],
      "name": "Transfer",
      "type": "event"
    },
    {
      "inputs": [
        {
          "internalType": "uint256",
          "name": "tokenId",
          "type": "uint256"
        },
        {
          "internalType": "uint256",
          "name": "exp",
          "type": "uint256"
        }
      ],
      "name": "addExperience",
      "outputs": [],
      "stateMutability": "nonpayable",
      "type": "function"
    },
    {
      "inputs": [
        {
          "internalType": "address",
          "name": "to",
          "type": "address"
        },
        {
          "internalType": "uint256",
          "name": "tokenId",
          "type": "uint256"
        }
      ],
      "name": "approve",
      "outputs": [],
      "stateMutability": "nonpayable",
      "type": "function"
    },
    {
      "inputs": [
        {
          "internalType": "uint256",
          "name": "",
          "type": "uint256"
        }
      ],
      "name": "babyData",
      "outputs": [
        {
          "internalType": "uint256",
          "name": "level",
          "type": "uint256"
        },
        {
          "internalType": "uint256",
          "name": "generation",
          "type": "uint256"
        },
        {
          "internalType": "uint256",
          "name": "experience",
          "type": "uint256"
        },
        {
          "internalType": "string",
          "name": "rarity",
          "type": "string"
        }
      ],
      "stateMutability": "view",
      "type": "function"
    },
    {
      "inputs": [
        {
          "internalType": "address",
          "name": "owner",
          "type": "address"
        }
      ],
      "name": "balanceOf",
      "outputs": [
        {
          "internalType": "uint256",
          "name": "",
          "type": "uint256"
        }
      ],
      "stateMutability": "view",
      "type": "function"
    },
    {
      "inputs": [
        {
          "internalType": "uint256",
          "name": "parent1",
          "type": "uint256"
        },
        {
          "internalType": "uint256",
          "name": "parent2",
          "type": "uint256"
        }
      ],
      "name": "breed",
      "outputs": [
        {
          "internalType": "uint256",
          "name": "",
          "type": "uint256"
        }
      ],
      "stateMutability": "nonpayable",
      "type": "function"
    },
    {
      "inputs": [
        {
          "internalType": "uint256",
          "name": "tokenId",
          "type": "uint256"
        }
      ],
      "name": "getApproved",
      "outputs": [
        {
          "internalType": "address",
          "name": "",
          "type": "address"
        }
      ],
      "stateMutability": "view",
      "type": "function"
    },
    {
      "inputs": [
        {
          "internalType": "string",
          "name": "rarity",
          "type": "string"
        }
      ],
      "name": "getMaxLevel",
      "outputs": [
        {
          "internalType": "uint256",
          "name": "",
          "type": "uint256"
        }
      ],
      "stateMutability": "pure",
      "type": "function"
    },
    {
      "inputs": [
        {
          "internalType": "uint256",
          "name": "tokenId",
          "type": "uint256"
        }
      ],
      "name": "growUp",
      "outputs": [],
      "stateMutability": "nonpayable",
      "type": "function"
    },
    {
      "inputs": [
        {
          "internalType": "address",
          "name": "owner",
          "type": "address"
        },
        {
          "internalType": "address",
          "name": "operator",
          "type": "address"
        }
      ],
      "name": "isApprovedForAll",
      "outputs": [
        {
          "internalType": "bool",
          "name": "",
          "type": "bool"
        }
      ],
      "stateMutability": "view",
      "type": "function"
    },
    {
      "inputs": [
        {
          "internalType": "address",
          "name": "to",
          "type": "address"
        }
      ],
      "name": "mintBaby",
      "outputs": [
        {
          "internalType": "uint256",
          "name": "",
          "type": "uint256"
        }
      ],
      "stateMutability": "payable",
      "type": "function"
    },
    {
      "inputs": [
        {
          "internalType": "address",
          "name": "to",
          "type": "address"
        },
        {
          "internalType": "string",
          "name": "rarity",
          "type": "string"
        }
      ],
      "name": "mintBabyWithRarity",
      "outputs": [
        {
          "internalType": "uint256",
          "name": "",
          "type": "uint256"
        }
      ],
      "stateMutability": "nonpayable",
      "type": "function"
    },
    {
      "inputs": [],
      "name": "mintPrice",
      "outputs": [
        {
          "internalType": "uint256",
          "name": "",
          "type": "uint256"
        }
      ],
      "stateMutability": "view",
      "type": "function"
    },
    {
      "inputs": [],
      "name": "name",
      "outputs": [
        {
          "internalType": "string",
          "name": "",
          "type": "string"
        }
      ],
      "stateMutability": "view",
      "type": "function"
    },
    {
      "inputs": [],
      "name": "owner",
      "outputs": [
        {
          "internalType": "address",
          "name": "",
          "type": "address"
        }
      ],
      "stateMutability": "view",
      "type": "function"
    },
    {
      "inputs": [
        {
          "internalType": "uint256",
          "name": "tokenId",
          "type": "uint256"
        }
      ],
      "name": "ownerOf",
      "outputs": [
        {
          "internalType": "address",
          "name": "",
          "type": "address"
        }
      ],
      "stateMutability": "view",
      "type": "function"
    },
    {
      "inputs": [],
      "name": "renounceOwnership",
      "outputs": [],
      "stateMutability": "nonpayable",
      "type": "function"
    },
    {
      "inputs": [
        {
          "internalType": "address",
          "name": "from",
          "type": "address"
        },
        {
          "internalType": "address",
          "name": "to",
          "type": "address"
        },
        {
          "internalType": "uint256",
          "name": "tokenId",
          "type": "uint256"
        }
      ],
      "name": "safeTransferFrom",
      "outputs": [],
      "stateMutability": "nonpayable",
      "type": "function"
    },
    {
      "inputs": [
        {
          "internalType": "address",
          "name": "from",
          "type": "address"
        },
        {
          "internalType": "address",
          "name": "to",
          "type": "address"
        },
        {
          "internalType": "uint256",
          "name": "tokenId",
          "type": "uint256"
        },
        {
          "internalType": "bytes",
          "name": "data",
          "type": "bytes"
        }
      ],
      "name": "safeTransferFrom",
      "outputs": [],
      "stateMutability": "nonpayable",
      "type": "function"
    },
    {
      "inputs": [
        {
          "internalType": "address",
          "name": "operator",
          "type": "address"
        },
        {
          "internalType": "bool",
          "name": "approved",
          "type": "bool"
        }
      ],
      "name": "setApprovalForAll",
      "outputs": [],
      "stateMutability": "nonpayable",
      "type": "function"
    },
    {
      "inputs": [
        {
          "internalType": "uint256",
          "name": "price",
          "type": "uint256"
        }
      ],
      "name": "setMintPrice",
      "outputs": [],
      "stateMutability": "nonpayable",
      "type": "function"
    },
    {
      "inputs": [
        {
          "internalType": "bytes4",
          "name": "interfaceId",
          "type": "bytes4"
        }
      ],
      "name": "supportsInterface",
      "outputs": [
        {
          "internalType": "bool",
          "name": "",
          "type": "bool"
        }
      ],
      "stateMutability": "view",
      "type": "function"
    },
    {
      "inputs": [],
      "name": "symbol",
      "outputs": [
        {
          "internalType": "string",
          "name": "",
          "type": "string"
        }
      ],
      "stateMutability": "view",
      "type": "function"
    },
    {
      "inputs": [],
      "name": "tokenCounter",
      "outputs": [
        {
          "internalType": "uint256",
          "name": "",
          "type": "uint256"
        }
      ],
      "stateMutability": "view",
      "type": "function"
    },
    {
      "inputs": [
        {
          "internalType": "uint256",
          "name": "tokenId",
          "type": "uint256"
        }
      ],
      "name": "tokenURI",
      "outputs": [
        {
          "internalType": "string",
          "name": "",
          "type": "string"
        }
      ],
      "stateMutability": "view",
      "type": "function"
    },
    {
      "inputs": [
        {
          "internalType": "address",
          "name": "from",
          "type": "address"
        },
        {
          "internalType": "address",
          "name": "to",
          "type": "address"
        },
        {
          "internalType": "uint256",
          "name": "tokenId",
          "type": "uint256"
        }
      ],
      "name": "transferFrom",
      "outputs": [],
      "stateMutability": "nonpayable",
      "type": "function"
    },
    {
      "inputs": [
        {
          "internalType": "address",
          "name": "newOwner",
          "type": "address"
        }
      ],
      "name": "transferOwnership",
      "outputs": [],
      "stateMutability": "nonpayable",
      "type": "function"
    },
    {
      "inputs": [],
      "name": "withdraw",
      "outputs": [],
      "stateMutability": "nonpayable",
      "type": "function"
    }
  ],
  "bytecode": "0x608060405267011c37937e08000060095534801561001c57600080fd5b50336040518060400160405280600b81526020016a29b830b1b2a130b134b2bd60a91b81525060405180604001604052806005815260200164534241425960d81b815250816000908161006f91906101b7565b50600161007c82826101b7565b5050506001600160a01b0381166100ad57604051631e4fbdf760e01b81526000600482015260240160405180910390fd5b6100b6816100c6565b5060016007556000600855610275565b600680546001600160a01b038381166001600160a01b0319831681179093556040519116919082907f8be0079c531659141344cd1fd0a4f28419497f9722a3daafe3b4186f6b6457e090600090a35050565b634e487b7160e01b600052604160045260246000fd5b600181811c9082168061014257607f821691505b60208210810361016257634e487b7160e01b600052602260045260246000fd5b50919050565b601f8211156101b257806000526020600020601f840160051c8101602085101561018f5750805b601f840160051c820191505b818110156101af576000815560010161019b565b50505b505050565b81516001600160401b038111156101d0576101d0610118565b6101e4816101de845461012e565b84610168565b6020601f82116001811461021857600083156102005750848201515b600019600385901b1c1916600184901b1784556101af565b600084815260208120601f198516915b828110156102485787850151825560209485019460019092019101610228565b50848210156102665786840151600019600387901b60f8161c191681555b50505050600190811b01905550565b61256f806102846000396000f3fe60806040526004361061019c5760003560e01c806370a08231116100ec578063b88d4fde1161008a578063d9ecad7b11610064578063d9ecad7b1461048c578063e985e9c5146104ac578063f2fde38b146104cc578063f4a0a528146104ec57600080fd5b8063b88d4fde14610436578063c87b56dd14610456578063d082e3811461047657600080fd5b806384686c64116100c657806384686c64146103c35780638da5cb5b146103e357806395d89b4114610401578063a22cb4651461041657600080fd5b806370a082311461037b578063715018a61461039b57806383eb13c4146103b057600080fd5b80633ccfd60b116101595780635d240c58116101335780635d240c58146102f55780635d5e38c8146103155780636352211e146103455780636817c76c1461036557600080fd5b80633ccfd60b146102a057806342842e0e146102b557806351ce3f18146102d557600080fd5b806301ffc9a7146101a157806306fdde03146101d6578063081812fc146101f8578063095ea7b314610230578063120566981461025257806323b872dd14610280575b600080fd5b3480156101ad57600080fd5b506101c16101bc366004611f2f565b61050c565b60405190151581526020015b60405180910390f35b3480156101e257600080fd5b506101eb61055e565b6040516101cd9190611f9c565b34801561020457600080fd5b50610218610213366004611faf565b6105f0565b6040516001600160a01b0390911681526020016101cd565b34801561023c57600080fd5b5061025061024b366004611fdf565b610619565b005b34801561025e57600080fd5b5061027261026d3660046120b9565b610628565b6040519081526020016101cd565b34801561028c57600080fd5b5061025061029b366004612107565b6106fc565b3480156102ac57600080fd5b5061025061078c565b3480156102c157600080fd5b506102506102d0366004612107565b61083b565b3480156102e157600080fd5b506102726102f0366004612144565b61085b565b34801561030157600080fd5b50610250610310366004612179565b6109ba565b34801561032157600080fd5b50610335610330366004611faf565b610ae0565b6040516101cd949392919061219b565b34801561035157600080fd5b50610218610360366004611faf565b610b93565b34801561037157600080fd5b5061027260095481565b34801561038757600080fd5b506102726103963660046121ca565b610b9e565b3480156103a757600080fd5b50610250610be6565b6102726103be3660046121ca565b610bfa565b3480156103cf57600080fd5b506102506103de366004611faf565b610d93565b3480156103ef57600080fd5b506006546001600160a01b0316610218565b34801561040d57600080fd5b506101eb610fa3565b34801561042257600080fd5b506102506104313660046121e5565b610fb2565b34801561044257600080fd5b50610250610451366004612221565b610fbd565b34801561046257600080fd5b506101eb610471366004611faf565b610fd5565b34801561048257600080fd5b5061027260085481565b34801561049857600080fd5b506102726104a7366004612179565b61104a565b3480156104b857600080fd5b506101c16104c736600461229d565b611450565b3480156104d857600080fd5b506102506104e73660046121ca565b61147e565b3480156104f857600080fd5b50610250610507366004611faf565b6114bc565b60006001600160e01b031982166380ac58cd60e01b148061053d57506001600160e01b03198216635b5e139f60e01b145b8061055857506301ffc9a760e01b6001600160e01b03198316145b92915050565b60606000805461056d906122d0565b80601f0160208091040260200160405190810160405280929190818152602001828054610599906122d0565b80156105e65780601f106105bb576101008083540402835291602001916105e6565b820191906000526020600020905b8154815290600101906020018083116105c957829003601f168201915b5050505050905090565b60006105fb826114c9565b506000828152600460205260409020546001600160a01b0316610558565b610624828233611502565b5050565b600061063261150f565b60085461063f848261153c565b60408051608081018252600180825260208083018281526000848601818152606086018a8152888352600a9094529590208451815590519281019290925592516002820155915190919060038201906106989082612351565b505060088054915060006106ab83612426565b919050555080846001600160a01b03167faa626e340403eb255bca866273b71665ea6c55c25f81359d0cd5b9c678c3f1a060016040516106ed91815260200190565b60405180910390a39392505050565b6001600160a01b03821661072b57604051633250574960e11b8152600060048201526024015b60405180910390fd5b6000610738838333611556565b9050836001600160a01b0316816001600160a01b031614610786576040516364283d7b60e01b81526001600160a01b0380861660048301526024820184905282166044820152606401610722565b50505050565b61079461150f565b4760006107a96006546001600160a01b031690565b6001600160a01b03168260405160006040518083038185875af1925050503d80600081146107f3576040519150601f19603f3d011682016040523d82523d6000602084013e6107f8565b606091505b50509050806106245760405162461bcd60e51b815260206004820152600f60248201526e151c985b9cd9995c8819985a5b1959608a1b6044820152606401610722565b61085683838360405180602001604052806000815250610fbd565b505050565b6000808260405160200161086f919061243f565b6040516020818303038152906040528051906020012090506040516020016108a3906521b7b6b6b7b760d11b815260060190565b6040516020818303038152906040528051906020012081036108c85750600392915050565b604051672ab731b7b6b6b7b760c11b60208201526028016040516020818303038152906040528051906020012081036109045750600492915050565b604051635261726560e01b602082015260240160405160208183030381529060405280519060200120810361093c5750600592915050565b604051634570696360e01b60208201526024016040516020818303038152906040528051906020012081036109745750600692915050565b604051684c6567656e6461727960b81b60208201526029016040516020818303038152906040528051906020012081036109b15750600792915050565b50600392915050565b6000828152600260205260409020546001600160a01b0316610a145760405162461bcd60e51b8152602060048201526013602482015272151bdad95b88191bd95cdb89dd08195e1a5cdd606a1b6044820152606401610722565b33610a1e83610b93565b6001600160a01b03161480610a3d57506006546001600160a01b031633145b610a7a5760405162461bcd60e51b815260206004820152600e60248201526d139bdd08185d5d1a1bdc9a5e995960921b6044820152606401610722565b6000828152600a6020526040812060028101805491928492610a9d90849061245b565b909155505060405182815283907f187629ed10c63608fdbe3ae566e392f60bfa2a349ba31cd2ccb14f116c7be85b9060200160405180910390a26108568361164f565b600a60205260009081526040902080546001820154600283015460038401805493949293919291610b10906122d0565b80601f0160208091040260200160405190810160405280929190818152602001828054610b3c906122d0565b8015610b895780601f10610b5e57610100808354040283529160200191610b89565b820191906000526020600020905b815481529060010190602001808311610b6c57829003601f168201915b5050505050905084565b6000610558826114c9565b60006001600160a01b038216610bca576040516322718ad960e21b815260006004820152602401610722565b506001600160a01b031660009081526003602052604090205490565b610bee61150f565b610bf860006116fe565b565b6000610c04611750565b6006546001600160a01b03163314610c5f57600954341015610c5f5760405162461bcd60e51b8152602060048201526014602482015273125b9cdd59999a58da595b9d081c185e5b595b9d60621b6044820152606401610722565b600854610c6c838261153c565b6040805160808101825260018082526020808301828152600084860181815286518088018852600681526521b7b6b6b7b760d11b8186015260608701908152888352600a909452959020845181559051928101929092559251600282015591519091906003820190610cde9082612351565b50506008805491506000610cf183612426565b919050555080836001600160a01b03167faa626e340403eb255bca866273b71665ea6c55c25f81359d0cd5b9c678c3f1a06001604051610d3391815260200190565b60405180910390a3600954341115610d825760095433906108fc90610d58903461246e565b6040518115909202916000818181858888f19350505050158015610d80573d6000803e3d6000fd5b505b9050610d8e6001600755565b919050565b33610d9d82610b93565b6001600160a01b031614610de35760405162461bcd60e51b815260206004820152600d60248201526c2737ba103a34329037bbb732b960991b6044820152606401610722565b6000818152600a602052604081208054909190610e01906064612481565b90508082600201541015610e4f5760405162461bcd60e51b81526020600482015260156024820152744e6f7420656e6f75676820657870657269656e636560581b6044820152606401610722565b6000610ee6836003018054610e63906122d0565b80601f0160208091040260200160405190810160405280929190818152602001828054610e8f906122d0565b8015610edc5780601f10610eb157610100808354040283529160200191610edc565b820191906000526020600020905b815481529060010190602001808311610ebf57829003601f168201915b505050505061085b565b905080836000015410610f325760405162461bcd60e51b8152602060048201526014602482015273105b1c9958591e48185d081b585e081b195d995b60621b6044820152606401610722565b81836002016000828254610f46919061246e565b909155505082546001908490600090610f6090849061245b565b9091555050825460405190815284907f3b7ca85b5e3d1ebb3a81e8d9e27bfeb9ef2f447026c115421132a20b0733b73f906020015b60405180910390a250505050565b60606001805461056d906122d0565b61062433838361177a565b610fc88484846106fc565b6107863385858585611819565b6060610fe0826114c9565b506000610ff860408051602081019091526000815290565b905060008151116110185760405180602001604052806000815250611043565b8061102284611944565b604051602001611033929190612498565b6040516020818303038152906040525b9392505050565b6000611054611750565b3361105e84610b93565b6001600160a01b031614801561108457503361107983610b93565b6001600160a01b0316145b6110c85760405162461bcd60e51b81526020600482015260156024820152744d757374206f776e20626f746820706172656e747360581b6044820152606401610722565b8183036111105760405162461bcd60e51b815260206004820152601660248201527521b0b73737ba10313932b2b2103bb4ba341039b2b63360511b6044820152606401610722565b6000600a600085815260200190815260200160002060405180608001604052908160008201548152602001600182015481526020016002820154815260200160038201805461115e906122d0565b80601f016020809104026020016040519081016040528092919081815260200182805461118a906122d0565b80156111d75780601f106111ac576101008083540402835291602001916111d7565b820191906000526020600020905b8154815290600101906020018083116111ba57829003601f168201915b50505050508152505090506000600a6000858152602001908152602001600020604051806080016040529081600082015481526020016001820154815260200160028201548152602001600382018054611230906122d0565b80601f016020809104026020016040519081016040528092919081815260200182805461125c906122d0565b80156112a95780601f1061127e576101008083540402835291602001916112a9565b820191906000526020600020905b81548152906001019060200180831161128c57829003601f168201915b505050505081525050905060028260000151101580156112cb57508051600211155b6113175760405162461bcd60e51b815260206004820181905260248201527f506172656e7473206d757374206265206174206c65617374206c6576656c20326044820152606401610722565b60008160200151836020015110611332578160200151611338565b82602001515b61134390600161245b565b90506000611359846060015184606001516119d7565b600854909150611369338261153c565b6040805160808101825260018082526020808301878152600084860181815260608601898152888352600a9094529590208451815590519281019290925592516002820155915190919060038201906113c29082612351565b505060088054915060006113d583612426565b91905055508087897f060a96d9e2f2e344b09a926d4839c6e7553d6f337cbaccacbae3e893e9c8dd0160405160405180910390a4604051838152819033907faa626e340403eb255bca866273b71665ea6c55c25f81359d0cd5b9c678c3f1a09060200160405180910390a39450505050506105586001600755565b6001600160a01b03918216600090815260056020908152604080832093909416825291909152205460ff1690565b61148661150f565b6001600160a01b0381166114b057604051631e4fbdf760e01b815260006004820152602401610722565b6114b9816116fe565b50565b6114c461150f565b600955565b6000818152600260205260408120546001600160a01b03168061055857604051637e27328960e01b815260048101849052602401610722565b6108568383836001611bf4565b6006546001600160a01b03163314610bf85760405163118cdaa760e01b8152336004820152602401610722565b610624828260405180602001604052806000815250611cfa565b6000828152600260205260408120546001600160a01b039081169083161561158357611583818486611d12565b6001600160a01b038116156115c1576115a0600085600080611bf4565b6001600160a01b038116600090815260036020526040902080546000190190555b6001600160a01b038516156115f0576001600160a01b0385166000908152600360205260409020805460010190555b60008481526002602052604080822080546001600160a01b0319166001600160a01b0389811691821790925591518793918516917fddf252ad1be2c89b69c2b068fc378daa952ba7f163c4a11628f55a4df523b3ef91a4949350505050565b6000818152600a60205260408120805490919061166d906064612481565b90506000611683836003018054610e63906122d0565b9050818360020154101580156116995750825481115b1561078657818360020160008282546116b2919061246e565b909155505082548360006116c583612426565b9091555050825460405190815284907f3b7ca85b5e3d1ebb3a81e8d9e27bfeb9ef2f447026c115421132a20b0733b73f90602001610f95565b600680546001600160a01b038381166001600160a01b0319831681179093556040519116919082907f8be0079c531659141344cd1fd0a4f28419497f9722a3daafe3b4186f6b6457e090600090a35050565b60026007540361177357604051633ee5aeb560e01b815260040160405180910390fd5b6002600755565b6001600160a01b0382166117ac57604051630b61174360e31b81526001600160a01b0383166004820152602401610722565b6001600160a01b03838116600081815260056020908152604080832094871680845294825291829020805460ff191686151590811790915591519182527f17307eab39ab6107e8899845ad3d59bd9653f200f220920489ca2b5937696c31910160405180910390a3505050565b6001600160a01b0383163b1561193d57604051630a85bd0160e11b81526001600160a01b0384169063150b7a029061185b9088908890879087906004016124c7565b6020604051808303816000875af1925050508015611896575060408051601f3d908101601f19168201909252611893918101906124fa565b60015b6118ff573d8080156118c4576040519150601f19603f3d011682016040523d82523d6000602084013e6118c9565b606091505b5080516000036118f757604051633250574960e11b81526001600160a01b0385166004820152602401610722565b805181602001fd5b6001600160e01b03198116630a85bd0160e11b1461193b57604051633250574960e11b81526001600160a01b0385166004820152602401610722565b505b5050505050565b6060600061195183611d76565b600101905060008167ffffffffffffffff81111561197157611971612009565b6040519080825280601f01601f19166020018201604052801561199b576020820181803683370190505b5090508181016020015b600019016f181899199a1a9b1b9c1cb0b131b232b360811b600a86061a8153600a85049450846119a557509392505050565b60606000836040516020016119ec919061243f565b604051602081830303815290604052805190602001209050600083604051602001611a17919061243f565b604051602081830303815290604052805190602001209050604051602001611a4e90684c6567656e6461727960b81b815260090190565b6040516020818303038152906040528051906020012082148015611a9e5750604051684c6567656e6461727960b81b60208201526029016040516020818303038152906040528051906020012081145b15611ace57604051806040016040528060098152602001684c6567656e6461727960b81b81525092505050610558565b604051684c6567656e6461727960b81b602082015260290160405160208183030381529060405280519060200120821480611b355750604051684c6567656e6461727960b81b60208201526029016040516020818303038152906040528051906020012081145b15611bce5760024244604051602001611b58929190918252602082015260400190565b6040516020818303038152906040528051906020012060001c611b7b9190612517565b600003611ba857604051806040016040528060048152602001634570696360e01b81525092505050610558565b604051806040016040528060048152602001635261726560e01b81525092505050610558565b505060408051808201909152600681526521b7b6b6b7b760d11b60208201529392505050565b8080611c0857506001600160a01b03821615155b15611cca576000611c18846114c9565b90506001600160a01b03831615801590611c445750826001600160a01b0316816001600160a01b031614155b8015611c575750611c558184611450565b155b15611c805760405163a9fbf51f60e01b81526001600160a01b0384166004820152602401610722565b8115611cc85783856001600160a01b0316826001600160a01b03167f8c5be1e5ebec7d5bd14f71427d1e84f3dd0314c0f7b2291e5b200ac8c7c3b92560405160405180910390a45b505b5050600090815260046020526040902080546001600160a01b0319166001600160a01b0392909216919091179055565b611d048383611e4e565b610856336000858585611819565b611d1d838383611eb3565b610856576001600160a01b038316611d4b57604051637e27328960e01b815260048101829052602401610722565b60405163177e802f60e01b81526001600160a01b038316600482015260248101829052604401610722565b60008072184f03e93ff9f4daa797ed6e38ed64bf6a1f0160401b8310611db55772184f03e93ff9f4daa797ed6e38ed64bf6a1f0160401b830492506040015b6d04ee2d6d415b85acef81000000008310611de1576d04ee2d6d415b85acef8100000000830492506020015b662386f26fc100008310611dff57662386f26fc10000830492506010015b6305f5e1008310611e17576305f5e100830492506008015b6127108310611e2b57612710830492506004015b60648310611e3d576064830492506002015b600a83106105585760010192915050565b6001600160a01b038216611e7857604051633250574960e11b815260006004820152602401610722565b6000611e8683836000611556565b90506001600160a01b03811615610856576040516339e3563760e11b815260006004820152602401610722565b60006001600160a01b03831615801590611f115750826001600160a01b0316846001600160a01b03161480611eed5750611eed8484611450565b80611f1157506000828152600460205260409020546001600160a01b038481169116145b949350505050565b6001600160e01b0319811681146114b957600080fd5b600060208284031215611f4157600080fd5b813561104381611f19565b60005b83811015611f67578181015183820152602001611f4f565b50506000910152565b60008151808452611f88816020860160208601611f4c565b601f01601f19169290920160200192915050565b6020815260006110436020830184611f70565b600060208284031215611fc157600080fd5b5035919050565b80356001600160a01b0381168114610d8e57600080fd5b60008060408385031215611ff257600080fd5b611ffb83611fc8565b946020939093013593505050565b634e487b7160e01b600052604160045260246000fd5b60008067ffffffffffffffff84111561203a5761203a612009565b50604051601f19601f85018116603f0116810181811067ffffffffffffffff8211171561206957612069612009565b60405283815290508082840185101561208157600080fd5b83836020830137600060208583010152509392505050565b600082601f8301126120aa57600080fd5b6110438383356020850161201f565b600080604083850312156120cc57600080fd5b6120d583611fc8565b9150602083013567ffffffffffffffff8111156120f157600080fd5b6120fd85828601612099565b9150509250929050565b60008060006060848603121561211c57600080fd5b61212584611fc8565b925061213360208501611fc8565b929592945050506040919091013590565b60006020828403121561215657600080fd5b813567ffffffffffffffff81111561216d57600080fd5b611f1184828501612099565b6000806040838503121561218c57600080fd5b50508035926020909101359150565b8481528360208201528260408201526080606082015260006121c06080830184611f70565b9695505050505050565b6000602082840312156121dc57600080fd5b61104382611fc8565b600080604083850312156121f857600080fd5b61220183611fc8565b91506020830135801515811461221657600080fd5b809150509250929050565b6000806000806080858703121561223757600080fd5b61224085611fc8565b935061224e60208601611fc8565b925060408501359150606085013567ffffffffffffffff81111561227157600080fd5b8501601f8101871361228257600080fd5b6122918782356020840161201f565b91505092959194509250565b600080604083850312156122b057600080fd5b6122b983611fc8565b91506122c760208401611fc8565b90509250929050565b600181811c908216806122e457607f821691505b60208210810361230457634e487b7160e01b600052602260045260246000fd5b50919050565b601f82111561085657806000526020600020601f840160051c810160208510156123315750805b601f840160051c820191505b8181101561193d576000815560010161233d565b815167ffffffffffffffff81111561236b5761236b612009565b61237f8161237984546122d0565b8461230a565b6020601f8211600181146123b3576000831561239b5750848201515b600019600385901b1c1916600184901b17845561193d565b600084815260208120601f198516915b828110156123e357878501518255602094850194600190920191016123c3565b50848210156124015786840151600019600387901b60f8161c191681555b50505050600190811b01905550565b634e487b7160e01b600052601160045260246000fd5b60006001820161243857612438612410565b5060010190565b60008251612451818460208701611f4c565b9190910192915050565b8082018082111561055857610558612410565b8181038181111561055857610558612410565b808202811582820484141761055857610558612410565b600083516124aa818460208801611f4c565b8351908301906124be818360208801611f4c565b01949350505050565b6001600160a01b03858116825284166020820152604081018390526080606082018190526000906121c090830184611f70565b60006020828403121561250c57600080fd5b815161104381611f19565b60008261253457634e487b7160e01b600052601260045260246000fd5b50069056fea26469706673582212204fb8fc86b802ad7d114ff1dddf3f1204d325454215af27b60d3883b76c706fd564736f6c634300081d0033",
  "linkReferences": {},
  "deployedLinkReferences": {}
}