{
  "_format": "hh-sol-artifact-1",
  "contractName": "NFTStaking",
  "sourceName": "contracts/NFTStaking.sol",
  "abi": [
    {
      "inputs": [
        {
          "internalType": "contract IERC721",
          "name": "_spaceBabiez",
          "type": "address"
        },
        {
          "internalType": "contract AstroMilkToken",
          "name": "_milkToken",
          "type": "address"
        }
      ],
      "stateMutability": "nonpayable",
      "type": "constructor"
    },
    {
      "anonymous": false,
      "inputs": [
        {
          "indexed": true,
          "internalType": "address",
          "name": "owner",
          "type": "address"
        },
        {
          "indexed": false,
          "internalType": "uint256",
          "name": "tokenId",
          "type": "uint256"
        },
        {
          "indexed": false,
          "internalType": "uint256",
          "name": "timestamp",
          "type": "uint256"
        }
      ],
      "name": "Staked",
      "type": "event"
    },
    {
      "anonymous": false,
      "inputs": [
        {
          "indexed": true,
          "internalType": "address",
          "name": "owner",
          "type": "address"
        },
        {
          "indexed": false,
          "internalType": "uint256",
          "name": "tokenId",
          "type": "uint256"
        },
        {
          "indexed": false,
          "internalType": "uint256",
          "name": "reward",
          "type": "uint256"
        }
      ],
      "name": "Unstaked",
      "type": "event"
    },
    {
      "inputs": [
        {
          "internalType": "uint256",
          "name": "tokenId",
          "type": "uint256"
        }
      ],
      "name": "claim",
      "outputs": [],
      "stateMutability": "nonpayable",
      "type": "function"
    },
    {
      "inputs": [],
      "name": "milkToken",
      "outputs": [
        {
          "internalType": "contract AstroMilkToken",
          "name": "",
          "type": "address"
        }
      ],
      "stateMutability": "view",
      "type": "function"
    },
    {
      "inputs": [],
      "name": "rewardRate",
      "outputs": [
        {
          "internalType": "uint256",
          "name": "",
          "type": "uint256"
        }
      ],
      "stateMutability": "view",
      "type": "function"
    },
    {
      "inputs": [],
      "name": "spaceBabiez",
      "outputs": [
        {
          "internalType": "contract IERC721",
          "name": "",
          "type": "address"
        }
      ],
      "stateMutability": "view",
      "type": "function"
    },
    {
      "inputs": [
        {
          "internalType": "uint256",
          "name": "tokenId",
          "type": "uint256"
        }
      ],
      "name": "stake",
      "outputs": [],
      "stateMutability": "nonpayable",
      "type": "function"
    },
    {
      "inputs": [
        {
          "internalType": "uint256",
          "name": "",
          "type": "uint256"
        }
      ],
      "name": "stakes",
      "outputs": [
        {
          "internalType": "uint256",
          "name": "tokenId",
          "type": "uint256"
        },
        {
          "internalType": "uint256",
          "name": "stakedAt",
          "type": "uint256"
        },
        {
          "internalType": "address",
          "name": "owner",
          "type": "address"
        }
      ],
      "stateMutability": "view",
      "type": "function"
    },
    {
      "inputs": [
        {
          "internalType": "uint256",
          "name": "tokenId",
          "type": "uint256"
        }
      ],
      "name": "unstake",
      "outputs": [],
      "stateMutability": "nonpayable",
      "type": "function"
    }
  ],
  "bytecode": "0x608060405261001962015180670de0b6b3a7640000610078565b60025534801561002857600080fd5b506040516107b53803806107b5833981016040819052610047916100b2565b600080546001600160a01b039384166001600160a01b031991821617909155600180549290931691161790556100ec565b60008261009557634e487b7160e01b600052601260045260246000fd5b500490565b6001600160a01b03811681146100af57600080fd5b50565b600080604083850312156100c557600080fd5b82516100d08161009a565b60208401519092506100e18161009a565b809150509250929050565b6106ba806100fb6000396000f3fe608060405234801561001057600080fd5b506004361061007d5760003560e01c80637b0a47ee1161005b5780637b0a47ee146100da5780638ebaafdf146100f1578063a694fc3a14610104578063d5a44f861461011757600080fd5b80632e17de7814610082578063379607f5146100975780637453c318146100aa575b600080fd5b6100956100903660046105f5565b610173565b005b6100956100a53660046105f5565b610351565b6001546100bd906001600160a01b031681565b6040516001600160a01b0390911681526020015b60405180910390f35b6100e360025481565b6040519081526020016100d1565b6000546100bd906001600160a01b031681565b6100956101123660046105f5565b610443565b61014f6101253660046105f5565b6003602052600090815260409020805460018201546002909201549091906001600160a01b031683565b6040805193845260208401929092526001600160a01b0316908201526060016100d1565b600081815260036020908152604091829020825160608101845281548152600182015492810192909252600201546001600160a01b03169181018290529033146101f55760405162461bcd60e51b815260206004820152600e60248201526d2737ba103a34329039ba30b5b2b960911b60448201526064015b60405180910390fd5b60008160200151426102079190610624565b9050600060025482610219919061063d565b6000858152600360205260408082208281556001810183905560020180546001600160a01b0319169055905490516323b872dd60e01b8152306004820152336024820152604481018790529192506001600160a01b0316906323b872dd90606401600060405180830381600087803b15801561029457600080fd5b505af11580156102a8573d6000803e3d6000fd5b50506001546040516340c10f1960e01b8152336004820152602481018590526001600160a01b0390911692506340c10f199150604401600060405180830381600087803b1580156102f857600080fd5b505af115801561030c573d6000803e3d6000fd5b505060408051878152602081018590523393507f7fc4727e062e336010f2c282598ef5f14facb3de68cf8195c2f23e1454b2b74e92500160405180910390a250505050565b600081815260036020526040902060028101546001600160a01b031633146103ac5760405162461bcd60e51b815260206004820152600e60248201526d2737ba103a34329039ba30b5b2b960911b60448201526064016101ec565b60008160010154426103be9190610624565b90506000600254826103d0919061063d565b42600185810191909155546040516340c10f1960e01b8152336004820152602481018390529192506001600160a01b0316906340c10f1990604401600060405180830381600087803b15801561042557600080fd5b505af1158015610439573d6000803e3d6000fd5b5050505050505050565b6000546040516331a9108f60e11b81526004810183905233916001600160a01b031690636352211e90602401602060405180830381865afa15801561048c573d6000803e3d6000fd5b505050506040513d601f19601f820116820180604052508101906104b09190610654565b6001600160a01b0316146104f65760405162461bcd60e51b815260206004820152600d60248201526c2737ba103a34329037bbb732b960991b60448201526064016101ec565b6000546040516323b872dd60e01b8152336004820152306024820152604481018390526001600160a01b03909116906323b872dd90606401600060405180830381600087803b15801561054857600080fd5b505af115801561055c573d6000803e3d6000fd5b5050604080516060810182528481524260208083018281523384860181815260008a81526003855287902095518655915160018601559051600290940180546001600160a01b0319166001600160a01b03909516949094179093558351878152908101919091529093507f1449c6dd7851abc30abf37f57715f492010519147cc2652fbc38202c18a6ee9092500160405180910390a250565b60006020828403121561060757600080fd5b5035919050565b634e487b7160e01b600052601160045260246000fd5b818103818111156106375761063761060e565b92915050565b80820281158282048414176106375761063761060e565b60006020828403121561066657600080fd5b81516001600160a01b038116811461067d57600080fd5b939250505056fea26469706673582212207a597619d135f9e26dfb8f6679d155a1a7c0593062c789f8a9802c2e0161f64a64736f6c634300081d0033",
  "linkReferences": {},
  "deployedLinkReferences": {}
}