{
  "_format": "hh-sol-artifact-1",
  "contractName": "NFTMarketplace",
  "sourceName": "contracts/NFTMarketplace.sol",
  "abi": [
    {
      "anonymous": false,
      "inputs": [
        {
          "indexed": true,
          "internalType": "address",
          "name": "nftAddress",
          "type": "address"
        },
        {
          "indexed": true,
          "internalType": "uint256",
          "name": "tokenId",
          "type": "uint256"
        },
        {
          "indexed": false,
          "internalType": "address",
          "name": "seller",
          "type": "address"
        }
      ],
      "name": "Delisted",
      "type": "event"
    },
    {
      "anonymous": false,
      "inputs": [
        {
          "indexed": true,
          "internalType": "address",
          "name": "nftAddress",
          "type": "address"
        },
        {
          "indexed": true,
          "internalType": "uint256",
          "name": "tokenId",
          "type": "uint256"
        },
        {
          "indexed": false,
          "internalType": "address",
          "name": "seller",
          "type": "address"
        },
        {
          "indexed": false,
          "internalType": "uint256",
          "name": "price",
          "type": "uint256"
        }
      ],
      "name": "Listed",
      "type": "event"
    },
    {
      "anonymous": false,
      "inputs": [
        {
          "indexed": true,
          "internalType": "address",
          "name": "nftAddress",
          "type": "address"
        },
        {
          "indexed": true,
          "internalType": "uint256",
          "name": "tokenId",
          "type": "uint256"
        },
        {
          "indexed": false,
          "internalType": "address",
          "name": "buyer",
          "type": "address"
        },
        {
          "indexed": false,
          "internalType": "uint256",
          "name": "price",
          "type": "uint256"
        }
      ],
      "name": "Sold",
      "type": "event"
    },
    {
      "inputs": [
        {
          "internalType": "address",
          "name": "nftAddress",
          "type": "address"
        },
        {
          "internalType": "uint256",
          "name": "tokenId",
          "type": "uint256"
        }
      ],
      "name": "buyItem",
      "outputs": [],
      "stateMutability": "payable",
      "type": "function"
    },
    {
      "inputs": [
        {
          "internalType": "address",
          "name": "nftAddress",
          "type": "address"
        },
        {
          "internalType": "uint256",
          "name": "tokenId",
          "type": "uint256"
        }
      ],
      "name": "cancelListing",
      "outputs": [],
      "stateMutability": "nonpayable",
      "type": "function"
    },
    {
      "inputs": [
        {
          "internalType": "address",
          "name": "nftAddress",
          "type": "address"
        },
        {
          "internalType": "uint256",
          "name": "tokenId",
          "type": "uint256"
        },
        {
          "internalType": "uint256",
          "name": "price",
          "type": "uint256"
        }
      ],
      "name": "listItem",
      "outputs": [],
      "stateMutability": "nonpayable",
      "type": "function"
    },
    {
      "inputs": [
        {
          "internalType": "address",
          "name": "",
          "type": "address"
        },
        {
          "internalType": "uint256",
          "name": "",
          "type": "uint256"
        }
      ],
      "name": "listings",
      "outputs": [
        {
          "internalType": "address",
          "name": "seller",
          "type": "address"
        },
        {
          "internalType": "uint256",
          "name": "price",
          "type": "uint256"
        }
      ],
      "stateMutability": "view",
      "type": "function"
    }
  ],
  "bytecode": "0x6080604052348015600f57600080fd5b506107418061001f6000396000f3fe60806040526004361061003e5760003560e01c806207df301461004357806389bfd38f146100ae5780639f37092a146100d0578063b2ddee06146100e3575b600080fd5b34801561004f57600080fd5b5061008b61005e366004610664565b6000602081815292815260408082209093529081522080546001909101546001600160a01b039091169082565b604080516001600160a01b03909316835260208301919091520160405180910390f35b3480156100ba57600080fd5b506100ce6100c9366004610690565b610103565b005b6100ce6100de366004610664565b610381565b3480156100ef57600080fd5b506100ce6100fe366004610664565b610569565b6040516331a9108f60e11b815260048101839052839033906001600160a01b03831690636352211e90602401602060405180830381865afa15801561014c573d6000803e3d6000fd5b505050506040513d601f19601f8201168201806040525081019061017091906106c5565b6001600160a01b0316146101bb5760405162461bcd60e51b815260206004820152600d60248201526c2737ba103a34329037bbb732b960991b60448201526064015b60405180910390fd5b60405163020604bf60e21b81526004810184905230906001600160a01b0383169063081812fc90602401602060405180830381865afa158015610202573d6000803e3d6000fd5b505050506040513d601f19601f8201168201806040525081019061022691906106c5565b6001600160a01b031614806102a4575060405163e985e9c560e01b81523360048201523060248201526001600160a01b0382169063e985e9c590604401602060405180830381865afa158015610280573d6000803e3d6000fd5b505050506040513d601f19601f820116820180604052508101906102a491906106e9565b6102f05760405162461bcd60e51b815260206004820152601860248201527f4d61726b6574706c616365206e6f7420617070726f766564000000000000000060448201526064016101b2565b6040805180820182523380825260208083018681526001600160a01b0389811660008181528085528781208b82528552879020955186546001600160a01b031916921691909117855590516001909401939093558351918252810185905285927f8b06cda60618abf2b2d07227f9dd63ec6349ca3269ce0eb18d49122a48362ad8910160405180910390a350505050565b6001600160a01b03808316600090815260208181526040808320858452825291829020825180840190935280549093168252600190920154918101829052906103fe5760405162461bcd60e51b815260206004820152600f60248201526e125d195b481b9bdd081b1a5cdd1959608a1b60448201526064016101b2565b80602001513410156104495760405162461bcd60e51b8152602060048201526014602482015273125b9cdd59999a58da595b9d081c185e5b595b9d60621b60448201526064016101b2565b805160208201516040516001600160a01b039092169181156108fc0291906000818181858888f19350505050158015610486573d6000803e3d6000fd5b5080516040516323b872dd60e01b81526001600160a01b03918216600482015233602482015260448101849052908416906323b872dd90606401600060405180830381600087803b1580156104da57600080fd5b505af11580156104ee573d6000803e3d6000fd5b505050506001600160a01b038316600081815260208181526040808320868452825280832080546001600160a01b031916815560010192909255838101518251338152918201528492917f5320a7a9b87f79d5f7316ef1338262f16072733cc053d083f0cd2018928ded6491015b60405180910390a3505050565b6001600160a01b0380831660009081526020818152604080832085845282529182902082518084019093528054909316808352600190930154908201529033146105e65760405162461bcd60e51b815260206004820152600e60248201526d2737ba103a34329039b2b63632b960911b60448201526064016101b2565b6001600160a01b038316600081815260208181526040808320868452825280832080546001600160a01b03191681556001019290925590513381528492917f9db7ba4a2920e0c8066731bb48bca5ee2a652267b7e73d0502962c29f1e41ead910161055c565b6001600160a01b038116811461066157600080fd5b50565b6000806040838503121561067757600080fd5b82356106828161064c565b946020939093013593505050565b6000806000606084860312156106a557600080fd5b83356106b08161064c565b95602085013595506040909401359392505050565b6000602082840312156106d757600080fd5b81516106e28161064c565b9392505050565b6000602082840312156106fb57600080fd5b815180151581146106e257600080fdfea26469706673582212201f36c736a7bf85b0939a49319d8a2bf7e29c0b166a6e4da9a687f7a71040a70764736f6c634300081d0033",
  "linkReferences": {},
  "deployedLinkReferences": {}
}