{
  "_format": "hh-sol-artifact-1",
  "contractName": "SpaceBabyNFT",
  "sourceName": "contracts/SpaceBabyNFT.sol",
  "abi": [
    {
      "inputs": [
        {
          "internalType": "string",
          "name": "name",
          "type": "string"
        },
        {
          "internalType": "string",
          "name": "symbol",
          "type": "string"
        },
        {
          "internalType": "string",
          "name": "baseURI",
          "type": "string"
        },
        {
          "internalType": "address",
          "name": "initialOwner",
          "type": "address"
        }
      ],
      "stateMutability": "nonpayable",
      "type": "constructor"
    },
    {
      "inputs": [
        {
          "internalType": "address",
          "name": "sender",
          "type": "address"
        },
        {
          "internalType": "uint256",
          "name": "tokenId",
          "type": "uint256"
        },
        {
          "internalType": "address",
          "name": "owner",
          "type": "address"
        }
      ],
      "name": "ERC721IncorrectOwner",
      "type": "error"
    },
    {
      "inputs": [
        {
          "internalType": "address",
          "name": "operator",
          "type": "address"
        },
        {
          "internalType": "uint256",
          "name": "tokenId",
          "type": "uint256"
        }
      ],
      "name": "ERC721InsufficientApproval",
      "type": "error"
    },
    {
      "inputs": [
        {
          "internalType": "address",
          "name": "approver",
          "type": "address"
        }
      ],
      "name": "ERC721InvalidApprover",
      "type": "error"
    },
    {
      "inputs": [
        {
          "internalType": "address",
          "name": "operator",
          "type": "address"
        }
      ],
      "name": "ERC721InvalidOperator",
      "type": "error"
    },
    {
      "inputs": [
        {
          "internalType": "address",
          "name": "owner",
          "type": "address"
        }
      ],
      "name": "ERC721InvalidOwner",
      "type": "error"
    },
    {
      "inputs": [
        {
          "internalType": "address",
          "name": "receiver",
          "type": "address"
        }
      ],
      "name": "ERC721InvalidReceiver",
      "type": "error"
    },
    {
      "inputs": [
        {
          "internalType": "address",
          "name": "sender",
          "type": "address"
        }
      ],
      "name": "ERC721InvalidSender",
      "type": "error"
    },
    {
      "inputs": [
        {
          "internalType": "uint256",
          "name": "tokenId",
          "type": "uint256"
        }
      ],
      "name": "ERC721NonexistentToken",
      "type": "error"
    },
    {
      "inputs": [],
      "name": "EnforcedPause",
      "type": "error"
    },
    {
      "inputs": [],
      "name": "ExpectedPause",
      "type": "error"
    },
    {
      "inputs": [
        {
          "internalType": "address",
          "name": "owner",
          "type": "address"
        }
      ],
      "name": "OwnableInvalidOwner",
      "type": "error"
    },
    {
      "inputs": [
        {
          "internalType": "address",
          "name": "account",
          "type": "address"
        }
      ],
      "name": "OwnableUnauthorizedAccount",
      "type": "error"
    },
    {
      "inputs": [],
      "name": "ReentrancyGuardReentrantCall",
      "type": "error"
    },
    {
      "anonymous": false,
      "inputs": [
        {
          "indexed": true,
          "internalType": "address",
          "name": "owner",
          "type": "address"
        },
        {
          "indexed": true,
          "internalType": "address",
          "name": "approved",
          "type": "address"
        },
        {
          "indexed": true,
          "internalType": "uint256",
          "name": "tokenId",
          "type": "uint256"
        }
      ],
      "name": "Approval",
      "type": "event"
    },
    {
      "anonymous": false,
      "inputs": [
        {
          "indexed": true,
          "internalType": "address",
          "name": "owner",
          "type": "address"
        },
        {
          "indexed": true,
          "internalType": "address",
          "name": "operator",
          "type": "address"
        },
        {
          "indexed": false,
          "internalType": "bool",
          "name": "approved",
          "type": "bool"
        }
      ],
      "name": "ApprovalForAll",
      "type": "event"
    },
    {
      "anonymous": false,
      "inputs": [
        {
          "indexed": true,
          "internalType": "address",
          "name": "to",
          "type": "address"
        },
        {
          "indexed": true,
          "internalType": "uint256",
          "name": "tokenId",
          "type": "uint256"
        },
        {
          "indexed": false,
          "internalType": "bool",
          "name": "isCollectorCard",
          "type": "bool"
        }
      ],
      "name": "BabyMinted",
      "type": "event"
    },
    {
      "anonymous": false,
      "inputs": [
        {
          "indexed": true,
          "internalType": "uint256",
          "name": "tokenId",
          "type": "uint256"
        },
        {
          "indexed": false,
          "internalType": "uint256",
          "name": "amount",
          "type": "uint256"
        }
      ],
      "name": "ExperienceGained",
      "type": "event"
    },
    {
      "anonymous": false,
      "inputs": [
        {
          "indexed": true,
          "internalType": "uint256",
          "name": "tokenId",
          "type": "uint256"
        },
        {
          "indexed": false,
          "internalType": "uint256",
          "name": "newLevel",
          "type": "uint256"
        }
      ],
      "name": "LevelUp",
      "type": "event"
    },
    {
      "anonymous": false,
      "inputs": [
        {
          "indexed": true,
          "internalType": "address",
          "name": "previousOwner",
          "type": "address"
        },
        {
          "indexed": true,
          "internalType": "address",
          "name": "newOwner",
          "type": "address"
        }
      ],
      "name": "OwnershipTransferred",
      "type": "event"
    },
    {
      "anonymous": false,
      "inputs": [
        {
          "indexed": false,
          "internalType": "address",
          "name": "account",
          "type": "address"
        }
      ],
      "name": "Paused",
      "type": "event"
    },
    {
      "anonymous": false,
      "inputs": [
        {
          "indexed": false,
          "internalType": "uint256",
          "name": "newPrice",
          "type": "uint256"
        }
      ],
      "name": "PriceUpdated",
      "type": "event"
    },
    {
      "anonymous": false,
      "inputs": [
        {
          "indexed": true,
          "internalType": "address",
          "name": "from",
          "type": "address"
        },
        {
          "indexed": true,
          "internalType": "address",
          "name": "to",
          "type": "address"
        },
        {
          "indexed": true,
          "internalType": "uint256",
          "name": "tokenId",
          "type": "uint256"
        }
      ],
      "name": "Transfer",
      "type": "event"
    },
    {
      "anonymous": false,
      "inputs": [
        {
          "indexed": false,
          "internalType": "address",
          "name": "account",
          "type": "address"
        }
      ],
      "name": "Unpaused",
      "type": "event"
    },
    {
      "inputs": [],
      "name": "MAX_COLLECTOR_CARDS",
      "outputs": [
        {
          "internalType": "uint256",
          "name": "",
          "type": "uint256"
        }
      ],
      "stateMutability": "view",
      "type": "function"
    },
    {
      "inputs": [],
      "name": "MAX_ORIGIN_BABIES",
      "outputs": [
        {
          "internalType": "uint256",
          "name": "",
          "type": "uint256"
        }
      ],
      "stateMutability": "view",
      "type": "function"
    },
    {
      "inputs": [
        {
          "internalType": "uint256",
          "name": "tokenId",
          "type": "uint256"
        },
        {
          "internalType": "uint256",
          "name": "amount",
          "type": "uint256"
        }
      ],
      "name": "addExperience",
      "outputs": [],
      "stateMutability": "nonpayable",
      "type": "function"
    },
    {
      "inputs": [
        {
          "internalType": "address",
          "name": "to",
          "type": "address"
        },
        {
          "internalType": "uint256",
          "name": "tokenId",
          "type": "uint256"
        }
      ],
      "name": "approve",
      "outputs": [],
      "stateMutability": "nonpayable",
      "type": "function"
    },
    {
      "inputs": [
        {
          "internalType": "address",
          "name": "owner",
          "type": "address"
        }
      ],
      "name": "balanceOf",
      "outputs": [
        {
          "internalType": "uint256",
          "name": "",
          "type": "uint256"
        }
      ],
      "stateMutability": "view",
      "type": "function"
    },
    {
      "inputs": [
        {
          "internalType": "uint256",
          "name": "tokenId",
          "type": "uint256"
        }
      ],
      "name": "getApproved",
      "outputs": [
        {
          "internalType": "address",
          "name": "",
          "type": "address"
        }
      ],
      "stateMutability": "view",
      "type": "function"
    },
    {
      "inputs": [
        {
          "internalType": "string",
          "name": "rarity",
          "type": "string"
        }
      ],
      "name": "getMaxLevel",
      "outputs": [
        {
          "internalType": "uint256",
          "name": "",
          "type": "uint256"
        }
      ],
      "stateMutability": "pure",
      "type": "function"
    },
    {
      "inputs": [
        {
          "internalType": "address",
          "name": "owner",
          "type": "address"
        },
        {
          "internalType": "address",
          "name": "operator",
          "type": "address"
        }
      ],
      "name": "isApprovedForAll",
      "outputs": [
        {
          "internalType": "bool",
          "name": "",
          "type": "bool"
        }
      ],
      "stateMutability": "view",
      "type": "function"
    },
    {
      "inputs": [
        {
          "internalType": "uint256",
          "name": "",
          "type": "uint256"
        }
      ],
      "name": "isCollectorCard",
      "outputs": [
        {
          "internalType": "bool",
          "name": "",
          "type": "bool"
        }
      ],
      "stateMutability": "view",
      "type": "function"
    },
    {
      "inputs": [
        {
          "internalType": "uint256",
          "name": "tokenId",
          "type": "uint256"
        }
      ],
      "name": "levelUp",
      "outputs": [],
      "stateMutability": "nonpayable",
      "type": "function"
    },
    {
      "inputs": [
        {
          "internalType": "address",
          "name": "to",
          "type": "address"
        },
        {
          "internalType": "string",
          "name": "rarity",
          "type": "string"
        }
      ],
      "name": "mintCollectorCard",
      "outputs": [],
      "stateMutability": "payable",
      "type": "function"
    },
    {
      "inputs": [
        {
          "internalType": "address",
          "name": "to",
          "type": "address"
        },
        {
          "internalType": "string",
          "name": "rarity",
          "type": "string"
        }
      ],
      "name": "mintOriginBaby",
      "outputs": [],
      "stateMutability": "payable",
      "type": "function"
    },
    {
      "inputs": [],
      "name": "mintPrice",
      "outputs": [
        {
          "internalType": "uint256",
          "name": "",
          "type": "uint256"
        }
      ],
      "stateMutability": "view",
      "type": "function"
    },
    {
      "inputs": [],
      "name": "name",
      "outputs": [
        {
          "internalType": "string",
          "name": "",
          "type": "string"
        }
      ],
      "stateMutability": "view",
      "type": "function"
    },
    {
      "inputs": [],
      "name": "owner",
      "outputs": [
        {
          "internalType": "address",
          "name": "",
          "type": "address"
        }
      ],
      "stateMutability": "view",
      "type": "function"
    },
    {
      "inputs": [
        {
          "internalType": "uint256",
          "name": "tokenId",
          "type": "uint256"
        }
      ],
      "name": "ownerOf",
      "outputs": [
        {
          "internalType": "address",
          "name": "",
          "type": "address"
        }
      ],
      "stateMutability": "view",
      "type": "function"
    },
    {
      "inputs": [],
      "name": "pause",
      "outputs": [],
      "stateMutability": "nonpayable",
      "type": "function"
    },
    {
      "inputs": [],
      "name": "paused",
      "outputs": [
        {
          "internalType": "bool",
          "name": "",
          "type": "bool"
        }
      ],
      "stateMutability": "view",
      "type": "function"
    },
    {
      "inputs": [],
      "name": "renounceOwnership",
      "outputs": [],
      "stateMutability": "nonpayable",
      "type": "function"
    },
    {
      "inputs": [
        {
          "internalType": "address",
          "name": "from",
          "type": "address"
        },
        {
          "internalType": "address",
          "name": "to",
          "type": "address"
        },
        {
          "internalType": "uint256",
          "name": "tokenId",
          "type": "uint256"
        }
      ],
      "name": "safeTransferFrom",
      "outputs": [],
      "stateMutability": "nonpayable",
      "type": "function"
    },
    {
      "inputs": [
        {
          "internalType": "address",
          "name": "from",
          "type": "address"
        },
        {
          "internalType": "address",
          "name": "to",
          "type": "address"
        },
        {
          "internalType": "uint256",
          "name": "tokenId",
          "type": "uint256"
        },
        {
          "internalType": "bytes",
          "name": "data",
          "type": "bytes"
        }
      ],
      "name": "safeTransferFrom",
      "outputs": [],
      "stateMutability": "nonpayable",
      "type": "function"
    },
    {
      "inputs": [
        {
          "internalType": "address",
          "name": "operator",
          "type": "address"
        },
        {
          "internalType": "bool",
          "name": "approved",
          "type": "bool"
        }
      ],
      "name": "setApprovalForAll",
      "outputs": [],
      "stateMutability": "nonpayable",
      "type": "function"
    },
    {
      "inputs": [
        {
          "internalType": "string",
          "name": "baseURI",
          "type": "string"
        }
      ],
      "name": "setBaseURI",
      "outputs": [],
      "stateMutability": "nonpayable",
      "type": "function"
    },
    {
      "inputs": [
        {
          "internalType": "uint256",
          "name": "price",
          "type": "uint256"
        }
      ],
      "name": "setMintPrice",
      "outputs": [],
      "stateMutability": "nonpayable",
      "type": "function"
    },
    {
      "inputs": [
        {
          "internalType": "bytes4",
          "name": "interfaceId",
          "type": "bytes4"
        }
      ],
      "name": "supportsInterface",
      "outputs": [
        {
          "internalType": "bool",
          "name": "",
          "type": "bool"
        }
      ],
      "stateMutability": "view",
      "type": "function"
    },
    {
      "inputs": [],
      "name": "symbol",
      "outputs": [
        {
          "internalType": "string",
          "name": "",
          "type": "string"
        }
      ],
      "stateMutability": "view",
      "type": "function"
    },
    {
      "inputs": [
        {
          "internalType": "uint256",
          "name": "",
          "type": "uint256"
        }
      ],
      "name": "tokenExperience",
      "outputs": [
        {
          "internalType": "uint256",
          "name": "",
          "type": "uint256"
        }
      ],
      "stateMutability": "view",
      "type": "function"
    },
    {
      "inputs": [
        {
          "internalType": "uint256",
          "name": "",
          "type": "uint256"
        }
      ],
      "name": "tokenLevel",
      "outputs": [
        {
          "internalType": "uint256",
          "name": "",
          "type": "uint256"
        }
      ],
      "stateMutability": "view",
      "type": "function"
    },
    {
      "inputs": [
        {
          "internalType": "uint256",
          "name": "",
          "type": "uint256"
        }
      ],
      "name": "tokenRarity",
      "outputs": [
        {
          "internalType": "string",
          "name": "",
          "type": "string"
        }
      ],
      "stateMutability": "view",
      "type": "function"
    },
    {
      "inputs": [
        {
          "internalType": "uint256",
          "name": "tokenId",
          "type": "uint256"
        }
      ],
      "name": "tokenURI",
      "outputs": [
        {
          "internalType": "string",
          "name": "",
          "type": "string"
        }
      ],
      "stateMutability": "view",
      "type": "function"
    },
    {
      "inputs": [],
      "name": "totalCollectorCards",
      "outputs": [
        {
          "internalType": "uint256",
          "name": "",
          "type": "uint256"
        }
      ],
      "stateMutability": "view",
      "type": "function"
    },
    {
      "inputs": [],
      "name": "totalOriginBabies",
      "outputs": [
        {
          "internalType": "uint256",
          "name": "",
          "type": "uint256"
        }
      ],
      "stateMutability": "view",
      "type": "function"
    },
    {
      "inputs": [
        {
          "internalType": "address",
          "name": "from",
          "type": "address"
        },
        {
          "internalType": "address",
          "name": "to",
          "type": "address"
        },
        {
          "internalType": "uint256",
          "name": "tokenId",
          "type": "uint256"
        }
      ],
      "name": "transferFrom",
      "outputs": [],
      "stateMutability": "nonpayable",
      "type": "function"
    },
    {
      "inputs": [
        {
          "internalType": "address",
          "name": "newOwner",
          "type": "address"
        }
      ],
      "name": "transferOwnership",
      "outputs": [],
      "stateMutability": "nonpayable",
      "type": "function"
    },
    {
      "inputs": [],
      "name": "unpause",
      "outputs": [],
      "stateMutability": "nonpayable",
      "type": "function"
    },
    {
      "inputs": [],
      "name": "withdraw",
      "outputs": [],
      "stateMutability": "nonpayable",
      "type": "function"
    }
  ],
  "bytecode": "0x608060405267011c37937e080000600c5534801561001c57600080fd5b506040516127a73803806127a783398101604081905261003b916101c2565b808484600061004a8382610301565b5060016100578282610301565b5050506001600160a01b03811661008857604051631e4fbdf760e01b81526000600482015260240160405180910390fd5b610091816100b7565b5060016007556008805460ff19169055600b6100ad8382610301565b50505050506103bf565b600680546001600160a01b038381166001600160a01b0319831681179093556040519116919082907f8be0079c531659141344cd1fd0a4f28419497f9722a3daafe3b4186f6b6457e090600090a35050565b634e487b7160e01b600052604160045260246000fd5b600082601f83011261013057600080fd5b81516001600160401b0381111561014957610149610109565b604051601f8201601f19908116603f011681016001600160401b038111828210171561017757610177610109565b60405281815283820160200185101561018f57600080fd5b60005b828110156101ae57602081860181015183830182015201610192565b506000918101602001919091529392505050565b600080600080608085870312156101d857600080fd5b84516001600160401b038111156101ee57600080fd5b6101fa8782880161011f565b602087015190955090506001600160401b0381111561021857600080fd5b6102248782880161011f565b604087015190945090506001600160401b0381111561024257600080fd5b61024e8782880161011f565b606087015190935090506001600160a01b038116811461026d57600080fd5b939692955090935050565b600181811c9082168061028c57607f821691505b6020821081036102ac57634e487b7160e01b600052602260045260246000fd5b50919050565b601f8211156102fc57806000526020600020601f840160051c810160208510156102d95750805b601f840160051c820191505b818110156102f957600081556001016102e5565b50505b505050565b81516001600160401b0381111561031a5761031a610109565b61032e816103288454610278565b846102b2565b6020601f821160018114610362576000831561034a5750848201515b600019600385901b1c1916600184901b1784556102f9565b600084815260208120601f198516915b828110156103925787850151825560209485019460019092019101610372565b50848210156103b05786840151600019600387901b60f8161c191681555b50505050600190811b01905550565b6123d9806103ce6000396000f3fe60806040526004361061020f5760003560e01c806373941a9611610118578063afb0a369116100a0578063e37b390d1161006f578063e37b390d146105d0578063e44b99b8146105e3578063e985e9c514610610578063f2fde38b14610630578063f4a0a5281461065057600080fd5b8063afb0a3691461055a578063b88d4fde1461057a578063c364af871461059a578063c87b56dd146105b057600080fd5b806395d89b41116100e757806395d89b41146104cc5780639a7a1743146104e15780639e1555cb146104f7578063a22cb4651461050d578063ab8ece8b1461052d57600080fd5b806373941a96146104565780638456cb591461046957806387e22fad1461047e5780638da5cb5b146104ae57600080fd5b806342842e0e1161019b5780635d240c581161016a5780635d240c58146103cb5780636352211e146103eb5780636817c76c1461040b57806370a0823114610421578063715018a61461044157600080fd5b806342842e0e1461035357806351ce3f181461037357806355f804b3146103935780635c975abb146103b357600080fd5b80630ce90ec2116101e25780630ce90ec2146102c55780631b03b022146102e557806323b872dd146103095780633ccfd60b146103295780633f4ba83a1461033e57600080fd5b806301ffc9a71461021457806306fdde0314610249578063081812fc1461026b578063095ea7b3146102a3575b600080fd5b34801561022057600080fd5b5061023461022f366004611dcb565b610670565b60405190151581526020015b60405180910390f35b34801561025557600080fd5b5061025e6106c2565b6040516102409190611e38565b34801561027757600080fd5b5061028b610286366004611e4b565b610754565b6040516001600160a01b039091168152602001610240565b3480156102af57600080fd5b506102c36102be366004611e80565b61077d565b005b3480156102d157600080fd5b506102c36102e0366004611e4b565b61078c565b3480156102f157600080fd5b506102fb600a5481565b604051908152602001610240565b34801561031557600080fd5b506102c3610324366004611eaa565b610a54565b34801561033557600080fd5b506102c3610adf565b34801561034a57600080fd5b506102c3610ba4565b34801561035f57600080fd5b506102c361036e366004611eaa565b610bb4565b34801561037f57600080fd5b506102fb61038e366004611f97565b610bd4565b34801561039f57600080fd5b506102c36103ae366004611f97565b610d33565b3480156103bf57600080fd5b5060085460ff16610234565b3480156103d757600080fd5b506102c36103e6366004611fcc565b610d47565b3480156103f757600080fd5b5061028b610406366004611e4b565b610e71565b34801561041757600080fd5b506102fb600c5481565b34801561042d57600080fd5b506102fb61043c366004611fee565b610e7c565b34801561044d57600080fd5b506102c3610ec4565b6102c3610464366004612009565b610ed6565b34801561047557600080fd5b506102c3611092565b34801561048a57600080fd5b50610234610499366004611e4b565b600d6020526000908152604090205460ff1681565b3480156104ba57600080fd5b506006546001600160a01b031661028b565b3480156104d857600080fd5b5061025e6110a2565b3480156104ed57600080fd5b506102fb610fa081565b34801561050357600080fd5b506102fb60095481565b34801561051957600080fd5b506102c3610528366004612057565b6110b1565b34801561053957600080fd5b506102fb610548366004611e4b565b600e6020526000908152604090205481565b34801561056657600080fd5b5061025e610575366004611e4b565b6110bc565b34801561058657600080fd5b506102c3610595366004612093565b611156565b3480156105a657600080fd5b506102fb6103e881565b3480156105bc57600080fd5b5061025e6105cb366004611e4b565b61116e565b6102c36105de366004612009565b611231565b3480156105ef57600080fd5b506102fb6105fe366004611e4b565b600f6020526000908152604090205481565b34801561061c57600080fd5b5061023461062b36600461210f565b61139a565b34801561063c57600080fd5b506102c361064b366004611fee565b6113c8565b34801561065c57600080fd5b506102c361066b366004611e4b565b611403565b60006001600160e01b031982166380ac58cd60e01b14806106a157506001600160e01b03198216635b5e139f60e01b145b806106bc57506301ffc9a760e01b6001600160e01b03198316145b92915050565b6060600080546106d190612142565b80601f01602080910402602001604051908101604052809291908181526020018280546106fd90612142565b801561074a5780601f1061071f5761010080835404028352916020019161074a565b820191906000526020600020905b81548152906001019060200180831161072d57829003601f168201915b5050505050905090565b600061075f82611446565b506000828152600460205260409020546001600160a01b03166106bc565b61078882823361147f565b5050565b61079461148c565b61079c6114b6565b6000818152600260205260409020546001600160a01b03166107fc5760405162461bcd60e51b8152602060048201526014602482015273151bdad95b88191bd95cc81b9bdd08195e1a5cdd60621b60448201526064015b60405180910390fd5b3361080682610e71565b6001600160a01b03161461084e5760405162461bcd60e51b815260206004820152600f60248201526e2737ba103a37b5b2b71037bbb732b960891b60448201526064016107f3565b6000818152600e6020526040812054610868906064612192565b6000838152600f60205260409020549091508111156108c15760405162461bcd60e51b81526020600482015260156024820152744e6f7420656e6f75676820657870657269656e636560581b60448201526064016107f3565b6000828152601060205260408120805461096291906108df90612142565b80601f016020809104026020016040519081016040528092919081815260200182805461090b90612142565b80156109585780601f1061092d57610100808354040283529160200191610958565b820191906000526020600020905b81548152906001019060200180831161093b57829003601f168201915b5050505050610bd4565b6000848152600e602052604090205490915081116109b65760405162461bcd60e51b815260206004820152601160248201527013585e081b195d995b081c995858da1959607a1b60448201526064016107f3565b6000838152600f6020526040812080548492906109d49084906121a9565b90915550506000838152600e602052604081208054916109f3836121bc565b9190505550827f3b7ca85b5e3d1ebb3a81e8d9e27bfeb9ef2f447026c115421132a20b0733b73f600e600086815260200190815260200160002054604051610a3d91815260200190565b60405180910390a25050610a516001600755565b50565b6001600160a01b038216610a7e57604051633250574960e11b8152600060048201526024016107f3565b6000610a8b8383336114da565b9050836001600160a01b0316816001600160a01b031614610ad9576040516364283d7b60e01b81526001600160a01b03808616600483015260248201849052821660448201526064016107f3565b50505050565b610ae76115d3565b610aef61148c565b476000610b046006546001600160a01b031690565b6001600160a01b03168260405160006040518083038185875af1925050503d8060008114610b4e576040519150601f19603f3d011682016040523d82523d6000602084013e610b53565b606091505b5050905080610b965760405162461bcd60e51b815260206004820152600f60248201526e151c985b9cd9995c8819985a5b1959608a1b60448201526064016107f3565b5050610ba26001600755565b565b610bac6115d3565b610ba2611600565b610bcf83838360405180602001604052806000815250611156565b505050565b60008082604051602001610be891906121d5565b604051602081830303815290604052805190602001209050604051602001610c1c906521b7b6b6b7b760d11b815260060190565b604051602081830303815290604052805190602001208103610c415750600392915050565b604051672ab731b7b6b6b7b760c11b6020820152602801604051602081830303815290604052805190602001208103610c7d5750600492915050565b604051635261726560e01b6020820152602401604051602081830303815290604052805190602001208103610cb55750600592915050565b604051634570696360e01b6020820152602401604051602081830303815290604052805190602001208103610ced5750600692915050565b604051684c6567656e6461727960b81b6020820152602901604051602081830303815290604052805190602001208103610d2a5750600792915050565b50600392915050565b610d3b6115d3565b600b6107888282612238565b610d4f6114b6565b6000828152600260205260409020546001600160a01b0316610daa5760405162461bcd60e51b8152602060048201526014602482015273151bdad95b88191bd95cc81b9bdd08195e1a5cdd60621b60448201526064016107f3565b33610db483610e71565b6001600160a01b03161480610dd357506006546001600160a01b031633145b610e105760405162461bcd60e51b815260206004820152600e60248201526d139bdd08185d5d1a1bdc9a5e995960921b60448201526064016107f3565b6000828152600f602052604081208054839290610e2e9084906122f7565b909155505060405181815282907f187629ed10c63608fdbe3ae566e392f60bfa2a349ba31cd2ccb14f116c7be85b9060200160405180910390a261078882611652565b60006106bc82611446565b60006001600160a01b038216610ea8576040516322718ad960e21b8152600060048201526024016107f3565b506001600160a01b031660009081526003602052604090205490565b610ecc6115d3565b610ba26000611758565b610ede61148c565b610ee66114b6565b610fa060095410610f395760405162461bcd60e51b815260206004820152601960248201527f4d6178206f726967696e2062616269657320726561636865640000000000000060448201526064016107f3565b600c54341015610f805760405162461bcd60e51b8152602060048201526012602482015271496e73756666696369656e742066756e647360701b60448201526064016107f3565b6000600a54600954610f9291906122f7565b610f9d9060016122f7565b9050610fa983826117aa565b6000818152600d60209081526040808320805460ff19169055600e825280832060019055600f825280832083905560109091529020610fe88382612238565b5060098054906000610ff9836121bc565b90915550506040516000815281906001600160a01b038516907facfa02a5319cebd55215a92c5f6c9f3ec8009cfa3d9f1b3ec6d3aae09439c969906020015b60405180910390a3600c5434111561108757600c5433906108fc9061105d90346121a9565b6040518115909202916000818181858888f19350505050158015611085573d6000803e3d6000fd5b505b506107886001600755565b61109a6115d3565b610ba26117c4565b6060600180546106d190612142565b610788338383611801565b601060205260009081526040902080546110d590612142565b80601f016020809104026020016040519081016040528092919081815260200182805461110190612142565b801561114e5780601f106111235761010080835404028352916020019161114e565b820191906000526020600020905b81548152906001019060200180831161113157829003601f168201915b505050505081565b611161848484610a54565b610ad933858585856118a0565b6000818152600260205260409020546060906001600160a01b03166111d55760405162461bcd60e51b815260206004820152601f60248201527f55524920717565727920666f72206e6f6e6578697374656e7420746f6b656e0060448201526064016107f3565b60006111df6119cb565b905060008151116111ff576040518060200160405280600081525061122a565b80611209846119da565b60405160200161121a92919061230a565b6040516020818303038152906040525b9392505050565b61123961148c565b6112416114b6565b6103e8600a54106112945760405162461bcd60e51b815260206004820152601b60248201527f4d617820636f6c6c6563746f722063617264732072656163686564000000000060448201526064016107f3565b600c543410156112db5760405162461bcd60e51b8152602060048201526012602482015271496e73756666696369656e742066756e647360701b60448201526064016107f3565b6000600a546009546112ed91906122f7565b6112f89060016122f7565b905061130483826117aa565b6000818152600d60209081526040808320805460ff19166001908117909155600e835281842055600f8252808320839055601090915290206113468382612238565b50600a8054906000611357836121bc565b90915550506040516001815281906001600160a01b038516907facfa02a5319cebd55215a92c5f6c9f3ec8009cfa3d9f1b3ec6d3aae09439c96990602001611038565b6001600160a01b03918216600090815260056020908152604080832093909416825291909152205460ff1690565b6113d06115d3565b6001600160a01b0381166113fa57604051631e4fbdf760e01b8152600060048201526024016107f3565b610a5181611758565b61140b6115d3565b600c8190556040518181527f66cbca4f3c64fecf1dcb9ce094abcf7f68c3450a1d4e3a8e917dd621edb4ebe09060200160405180910390a150565b6000818152600260205260408120546001600160a01b0316806106bc57604051637e27328960e01b8152600481018490526024016107f3565b610bcf8383836001611a6d565b6002600754036114af57604051633ee5aeb560e01b815260040160405180910390fd5b6002600755565b60085460ff1615610ba25760405163d93c066560e01b815260040160405180910390fd5b6000828152600260205260408120546001600160a01b039081169083161561150757611507818486611b73565b6001600160a01b0381161561154557611524600085600080611a6d565b6001600160a01b038116600090815260036020526040902080546000190190555b6001600160a01b03851615611574576001600160a01b0385166000908152600360205260409020805460010190555b60008481526002602052604080822080546001600160a01b0319166001600160a01b0389811691821790925591518793918516917fddf252ad1be2c89b69c2b068fc378daa952ba7f163c4a11628f55a4df523b3ef91a4949350505050565b6006546001600160a01b03163314610ba25760405163118cdaa760e01b81523360048201526024016107f3565b611608611bd7565b6008805460ff191690557f5db9ee0a495bf2e6ff9c91a7834c1ba4fdd244a5e8aa4e537bd38aeae4b073aa335b6040516001600160a01b03909116815260200160405180910390a1565b6000818152600e602052604081205461166c906064612192565b905060006116916010600085815260200190815260200160002080546108df90612142565b6000848152600f602052604090205490915082118015906116bf57506000838152600e602052604090205481115b15610bcf576000838152600f6020526040812080548492906116e29084906121a9565b90915550506000838152600e60205260408120805491611701836121bc565b9190505550827f3b7ca85b5e3d1ebb3a81e8d9e27bfeb9ef2f447026c115421132a20b0733b73f600e60008681526020019081526020016000205460405161174b91815260200190565b60405180910390a2505050565b600680546001600160a01b038381166001600160a01b0319831681179093556040519116919082907f8be0079c531659141344cd1fd0a4f28419497f9722a3daafe3b4186f6b6457e090600090a35050565b610788828260405180602001604052806000815250611bfa565b6117cc6114b6565b6008805460ff191660011790557f62e78cea01bee320cd4e420270b5ea74000d11b0c9f74754ebdbfc544b05a2586116353390565b6001600160a01b03821661183357604051630b61174360e31b81526001600160a01b03831660048201526024016107f3565b6001600160a01b03838116600081815260056020908152604080832094871680845294825291829020805460ff191686151590811790915591519182527f17307eab39ab6107e8899845ad3d59bd9653f200f220920489ca2b5937696c31910160405180910390a3505050565b6001600160a01b0383163b156119c457604051630a85bd0160e11b81526001600160a01b0384169063150b7a02906118e2908890889087908790600401612349565b6020604051808303816000875af192505050801561191d575060408051601f3d908101601f1916820190925261191a91810190612386565b60015b611986573d80801561194b576040519150601f19603f3d011682016040523d82523d6000602084013e611950565b606091505b50805160000361197e57604051633250574960e11b81526001600160a01b03851660048201526024016107f3565b805181602001fd5b6001600160e01b03198116630a85bd0160e11b146119c257604051633250574960e11b81526001600160a01b03851660048201526024016107f3565b505b5050505050565b6060600b80546106d190612142565b606060006119e783611c12565b600101905060008167ffffffffffffffff811115611a0757611a07611ee7565b6040519080825280601f01601f191660200182016040528015611a31576020820181803683370190505b5090508181016020015b600019016f181899199a1a9b1b9c1cb0b131b232b360811b600a86061a8153600a8504945084611a3b57509392505050565b8080611a8157506001600160a01b03821615155b15611b43576000611a9184611446565b90506001600160a01b03831615801590611abd5750826001600160a01b0316816001600160a01b031614155b8015611ad05750611ace818461139a565b155b15611af95760405163a9fbf51f60e01b81526001600160a01b03841660048201526024016107f3565b8115611b415783856001600160a01b0316826001600160a01b03167f8c5be1e5ebec7d5bd14f71427d1e84f3dd0314c0f7b2291e5b200ac8c7c3b92560405160405180910390a45b505b5050600090815260046020526040902080546001600160a01b0319166001600160a01b0392909216919091179055565b611b7e838383611cea565b610bcf576001600160a01b038316611bac57604051637e27328960e01b8152600481018290526024016107f3565b60405163177e802f60e01b81526001600160a01b0383166004820152602481018290526044016107f3565b60085460ff16610ba257604051638dfc202b60e01b815260040160405180910390fd5b611c048383611d50565b610bcf3360008585856118a0565b60008072184f03e93ff9f4daa797ed6e38ed64bf6a1f0160401b8310611c515772184f03e93ff9f4daa797ed6e38ed64bf6a1f0160401b830492506040015b6d04ee2d6d415b85acef81000000008310611c7d576d04ee2d6d415b85acef8100000000830492506020015b662386f26fc100008310611c9b57662386f26fc10000830492506010015b6305f5e1008310611cb3576305f5e100830492506008015b6127108310611cc757612710830492506004015b60648310611cd9576064830492506002015b600a83106106bc5760010192915050565b60006001600160a01b03831615801590611d485750826001600160a01b0316846001600160a01b03161480611d245750611d24848461139a565b80611d4857506000828152600460205260409020546001600160a01b038481169116145b949350505050565b6001600160a01b038216611d7a57604051633250574960e11b8152600060048201526024016107f3565b6000611d88838360006114da565b90506001600160a01b03811615610bcf576040516339e3563760e11b8152600060048201526024016107f3565b6001600160e01b031981168114610a5157600080fd5b600060208284031215611ddd57600080fd5b813561122a81611db5565b60005b83811015611e03578181015183820152602001611deb565b50506000910152565b60008151808452611e24816020860160208601611de8565b601f01601f19169290920160200192915050565b60208152600061122a6020830184611e0c565b600060208284031215611e5d57600080fd5b5035919050565b80356001600160a01b0381168114611e7b57600080fd5b919050565b60008060408385031215611e9357600080fd5b611e9c83611e64565b946020939093013593505050565b600080600060608486031215611ebf57600080fd5b611ec884611e64565b9250611ed660208501611e64565b929592945050506040919091013590565b634e487b7160e01b600052604160045260246000fd5b60008067ffffffffffffffff841115611f1857611f18611ee7565b50604051601f19601f85018116603f0116810181811067ffffffffffffffff82111715611f4757611f47611ee7565b604052838152905080828401851015611f5f57600080fd5b83836020830137600060208583010152509392505050565b600082601f830112611f8857600080fd5b61122a83833560208501611efd565b600060208284031215611fa957600080fd5b813567ffffffffffffffff811115611fc057600080fd5b611d4884828501611f77565b60008060408385031215611fdf57600080fd5b50508035926020909101359150565b60006020828403121561200057600080fd5b61122a82611e64565b6000806040838503121561201c57600080fd5b61202583611e64565b9150602083013567ffffffffffffffff81111561204157600080fd5b61204d85828601611f77565b9150509250929050565b6000806040838503121561206a57600080fd5b61207383611e64565b91506020830135801515811461208857600080fd5b809150509250929050565b600080600080608085870312156120a957600080fd5b6120b285611e64565b93506120c060208601611e64565b925060408501359150606085013567ffffffffffffffff8111156120e357600080fd5b8501601f810187136120f457600080fd5b61210387823560208401611efd565b91505092959194509250565b6000806040838503121561212257600080fd5b61212b83611e64565b915061213960208401611e64565b90509250929050565b600181811c9082168061215657607f821691505b60208210810361217657634e487b7160e01b600052602260045260246000fd5b50919050565b634e487b7160e01b600052601160045260246000fd5b80820281158282048414176106bc576106bc61217c565b818103818111156106bc576106bc61217c565b6000600182016121ce576121ce61217c565b5060010190565b600082516121e7818460208701611de8565b9190910192915050565b601f821115610bcf57806000526020600020601f840160051c810160208510156122185750805b601f840160051c820191505b818110156119c45760008155600101612224565b815167ffffffffffffffff81111561225257612252611ee7565b612266816122608454612142565b846121f1565b6020601f82116001811461229a57600083156122825750848201515b600019600385901b1c1916600184901b1784556119c4565b600084815260208120601f198516915b828110156122ca57878501518255602094850194600190920191016122aa565b50848210156122e85786840151600019600387901b60f8161c191681555b50505050600190811b01905550565b808201808211156106bc576106bc61217c565b6000835161231c818460208801611de8565b835190830190612330818360208801611de8565b64173539b7b760d91b9101908152600501949350505050565b6001600160a01b038581168252841660208201526040810183905260806060820181905260009061237c90830184611e0c565b9695505050505050565b60006020828403121561239857600080fd5b815161122a81611db556fea26469706673582212206f0323382c7a1e1c61e99389fdb0a19e7d16296f00541b3c0e3c8c9b3ad7c75564736f6c634300081d0033",
  "linkReferences": {},
  "deployedLinkReferences": {}
}